{
  "contractName": "receivePayment",
  "abi": [
    {
      "inputs": [],
      "stateMutability": "nonpayable",
      "type": "constructor"
    },
    {
      "inputs": [
        {
          "internalType": "address",
          "name": "_t",
          "type": "address"
        }
      ],
      "name": "Existing",
      "outputs": [],
      "stateMutability": "nonpayable",
      "type": "function"
    },
    {
      "inputs": [
        {
          "internalType": "uint256",
          "name": "_price",
          "type": "uint256"
        },
        {
          "internalType": "address",
          "name": "_t",
          "type": "address"
        }
      ],
      "name": "receivePay",
      "outputs": [],
      "stateMutability": "payable",
      "type": "function",
      "payable": true
    },
    {
      "inputs": [
        {
          "internalType": "uint256",
          "name": "_price",
          "type": "uint256"
        },
        {
          "internalType": "address",
          "name": "_t",
          "type": "address"
        }
      ],
      "name": "payWithBalance",
      "outputs": [],
      "stateMutability": "payable",
      "type": "function",
      "payable": true
    }
  ],
  "bytecode": "0x608060405234801561001057600080fd5b50610907806100206000396000f3fe6080604052600436106100345760003560e01c80636524b152146100395780637f9968cd146100555780638e0273bb14610071575b600080fd5b610053600480360381019061004e91906104ba565b61009a565b005b61006f600480360381019061006a91906104ba565b6101ac565b005b34801561007d57600080fd5b50610098600480360381019061009391906104fa565b6103dd565b005b670de0b6b3a7640000826100ae9190610556565b34146100ef576040517f08c379a00000000000000000000000000000000000000000000000000000000081526004016100e69061060d565b60405180910390fd5b6064600a836100fe9190610556565b610108919061065c565b600081905550610117816103dd565b600160009054906101000a900473ffffffffffffffffffffffffffffffffffffffff1673ffffffffffffffffffffffffffffffffffffffff16638007d9f9600054336040518363ffffffff1660e01b81526004016101769291906106ab565b600060405180830381600087803b15801561019057600080fd5b505af11580156101a4573d6000803e3d6000fd5b505050505050565b6101b5816103dd565b6000600160009054906101000a900473ffffffffffffffffffffffffffffffffffffffff1673ffffffffffffffffffffffffffffffffffffffff16635f515226336040518263ffffffff1660e01b815260040161021291906106d4565b6020604051808303816000875af1158015610231573d6000803e3d6000fd5b505050506040513d601f19601f820116820180604052508101906102559190610704565b9050600081141561029b576040517f08c379a00000000000000000000000000000000000000000000000000000000081526004016102929061077d565b60405180910390fd5b600081846102a9919061079d565b1061039d57600160009054906101000a900473ffffffffffffffffffffffffffffffffffffffff1673ffffffffffffffffffffffffffffffffffffffff1663e30443bc3360006040518363ffffffff1660e01b815260040161030c929190610816565b600060405180830381600087803b15801561032657600080fd5b505af115801561033a573d6000803e3d6000fd5b505050503373ffffffffffffffffffffffffffffffffffffffff166108fc670de0b6b3a76400008361036c9190610556565b9081150290604051600060405180830381858888f19350505050158015610397573d6000803e3d6000fd5b506103d8565b6040517f08c379a00000000000000000000000000000000000000000000000000000000081526004016103cf906108b1565b60405180910390fd5b505050565b80600160006101000a81548173ffffffffffffffffffffffffffffffffffffffff021916908373ffffffffffffffffffffffffffffffffffffffff16021790555050565b600080fd5b6000819050919050565b61043981610426565b811461044457600080fd5b50565b60008135905061045681610430565b92915050565b600073ffffffffffffffffffffffffffffffffffffffff82169050919050565b60006104878261045c565b9050919050565b6104978161047c565b81146104a257600080fd5b50565b6000813590506104b48161048e565b92915050565b600080604083850312156104d1576104d0610421565b5b60006104df85828601610447565b92505060206104f0858286016104a5565b9150509250929050565b6000602082840312156105105761050f610421565b5b600061051e848285016104a5565b91505092915050565b7f4e487b7100000000000000000000000000000000000000000000000000000000600052601160045260246000fd5b600061056182610426565b915061056c83610426565b9250817fffffffffffffffffffffffffffffffffffffffffffffffffffffffffffffffff04831182151516156105a5576105a4610527565b5b828202905092915050565b600082825260208201905092915050565b7f4e65656420746f2073656e6420656e6f75676820657468657200000000000000600082015250565b60006105f76019836105b0565b9150610602826105c1565b602082019050919050565b60006020820190508181036000830152610626816105ea565b9050919050565b7f4e487b7100000000000000000000000000000000000000000000000000000000600052601260045260246000fd5b600061066782610426565b915061067283610426565b9250826106825761068161062d565b5b828204905092915050565b61069681610426565b82525050565b6106a58161047c565b82525050565b60006040820190506106c0600083018561068d565b6106cd602083018461069c565b9392505050565b60006020820190506106e9600083018461069c565b92915050565b6000815190506106fe81610430565b92915050565b60006020828403121561071a57610719610421565b5b6000610728848285016106ef565b91505092915050565b7f42616c616e636520656d70747900000000000000000000000000000000000000600082015250565b6000610767600d836105b0565b915061077282610731565b602082019050919050565b600060208201905081810360008301526107968161075a565b9050919050565b60006107a882610426565b91506107b383610426565b9250828210156107c6576107c5610527565b5b828203905092915050565b6000819050919050565b6000819050919050565b60006108006107fb6107f6846107d1565b6107db565b610426565b9050919050565b610810816107e5565b82525050565b600060408201905061082b600083018561069c565b6108386020830184610807565b9392505050565b7f54686572652061726520736f6d652070726f626c656d73207769746820796f7560008201527f722062616c616e63650000000000000000000000000000000000000000000000602082015250565b600061089b6029836105b0565b91506108a68261083f565b604082019050919050565b600060208201905081810360008301526108ca8161088e565b905091905056fea2646970667358221220e78c991f90aeeaaead179510c789f279c7dd51a3eece2fd06997fb700102d24a64736f6c634300080a0033",
  "immutableReferences": {},
  "source": "// SPDX-License-Identifier: GNU GPL 3.0\npragma solidity >=0.4.22 < 0.9.0;\n\ncontract storePaymentsDiscountB {\n\n  function addPayment(uint _discount, address _idwallet) public {}\n  function setBalance(address _idwallet, uint _discount) public {}\n  function checkBalance(address _idwallet) public returns (uint discount) {}\n\n}\n\ncontract receivePayment {\n  /*uint public idwallet;\n  uint private price;*/\n  uint private discount;\n  \n\n\n  constructor() {\n    \n  }\n\n  storePaymentsDiscountB sPD;\n\n  function Existing(address _t) public {\n      sPD = storePaymentsDiscountB(_t);\n  }\n  \n\n  function receivePay(uint _price, address _t) public payable {\n    require(msg.value == _price*10**18, 'Need to send enough ether'); //Need to convert _price in wei before the comparison\n\n    discount = (_price*10)/100; //Set the discount percentage\n    Existing(_t); //Creating a new instance of the smart contract StorePaymentDiscount \n    sPD.addPayment(discount, msg.sender); //Adding the information about the payment\n  }\n\n  function payWithBalance(uint _price, address _t) public payable{\n\n    Existing(_t);\n    uint _balance = sPD.checkBalance(msg.sender);\n    if(_balance == 0){\n      revert(\"Balance empty\");\n    }\n    if((_price - _balance) >= 0){ //Check that the balance is enough\n      //uint _newPrice = _price - _balance;\n      sPD.setBalance(msg.sender, 0); //Set the balance to 0\n      payable(msg.sender).transfer(_balance*1 ether); //Return the money saved to the EOA\n\n    }else{\n      revert(\"There are some problems with your balance\");\n    }\n  }\n\n\n}",
  "sourcePath": "C:\\Users\\jacoe\\Documents\\Universit\\Reti\\MoonCake\\contracts\\receivePayment.sol",
  "compiler": {
    "name": "solc",
    "version": "0.8.10+commit.fc410830.Emscripten.clang"
  },
  "schemaVersion": "3.4.3",
  "updatedAt": "2021-12-22T10:47:42.826Z",
  "networkType": "ethereum",
  "devdoc": {
    "kind": "dev",
    "methods": {},
    "version": 1
  },
  "userdoc": {
    "kind": "user",
    "methods": {},
    "version": 1
  }
}