{
  "contractName": "receivePayment",
  "abi": [
    {
      "inputs": [],
      "stateMutability": "payable",
      "type": "constructor",
      "payable": true
    },
    {
      "inputs": [],
      "name": "owner",
      "outputs": [
        {
          "internalType": "address",
          "name": "",
          "type": "address"
        }
      ],
      "stateMutability": "view",
      "type": "function",
      "constant": true
    },
    {
      "inputs": [],
      "name": "receivePay",
      "outputs": [],
      "stateMutability": "payable",
      "type": "function",
      "payable": true
    }
  ],
  "bytecode": "0x6080604052610279806100136000396000f3fe6080604052600436106100295760003560e01c80635d240df51461002e5780638da5cb5b14610038575b600080fd5b610036610063565b005b34801561004457600080fd5b5061004d6100bf565b60405161005a91906101c7565b60405180910390f35b346001819055506000366002919061007c9291906100e3565b50336000806101000a81548173ffffffffffffffffffffffffffffffffffffffff021916908373ffffffffffffffffffffffffffffffffffffffff160217905550565b60008054906101000a900473ffffffffffffffffffffffffffffffffffffffff1681565b8280546100ef90610211565b90600052602060002090601f0160209004810192826101115760008555610158565b82601f1061012a57803560ff1916838001178555610158565b82800160010185558215610158579182015b8281111561015757823582559160200191906001019061013c565b5b5090506101659190610169565b5090565b5b8082111561018257600081600090555060010161016a565b5090565b600073ffffffffffffffffffffffffffffffffffffffff82169050919050565b60006101b182610186565b9050919050565b6101c1816101a6565b82525050565b60006020820190506101dc60008301846101b8565b92915050565b7f4e487b7100000000000000000000000000000000000000000000000000000000600052602260045260246000fd5b6000600282049050600182168061022957607f821691505b6020821081141561023d5761023c6101e2565b5b5091905056fea2646970667358221220e850954fb0605be5a9bcc42f766bed559491b8c57ab1d9f40a1d7b896992168064736f6c634300080a0033",
  "immutableReferences": {},
  "source": "// SPDX-License-Identifier: MIT\npragma solidity >=0.4.22 < 0.9.0;\n\ncontract receivePayment {\n  address public owner;\n  uint private value;\n  bytes private message;\n\n\n  constructor() payable{\n    \n  }\n\n  function receivePay() public payable {\n    value = msg.value;\n    message = msg.data;\n    owner = msg.sender;\n  }\n\n\n}",
  "sourcePath": "C:\\Users\\jacoe\\Documents\\Università\\Reti\\MoonCake\\contracts\\receivePayment.sol",
  "compiler": {
    "name": "solc",
    "version": "0.8.10+commit.fc410830.Emscripten.clang"
  },
  "schemaVersion": "3.4.3",
  "updatedAt": "2021-12-20T22:42:37.454Z",
  "networkType": "ethereum",
  "devdoc": {
    "kind": "dev",
    "methods": {},
    "version": 1
  },
  "userdoc": {
    "kind": "user",
    "methods": {},
    "version": 1
  }
}