{
  "contractName": "receivePayment",
  "abi": [
    {
      "inputs": [],
      "stateMutability": "nonpayable",
      "type": "constructor"
    },
    {
      "inputs": [
        {
          "internalType": "address",
          "name": "_t",
          "type": "address"
        }
      ],
      "name": "Existing",
      "outputs": [],
      "stateMutability": "nonpayable",
      "type": "function"
    },
    {
      "inputs": [
        {
          "internalType": "uint256",
          "name": "_price",
          "type": "uint256"
        },
        {
          "internalType": "address",
          "name": "_t",
          "type": "address"
        }
      ],
      "name": "receivePay",
      "outputs": [],
      "stateMutability": "payable",
      "type": "function",
      "payable": true
    },
    {
      "inputs": [
        {
          "internalType": "uint256",
          "name": "_price",
          "type": "uint256"
        },
        {
          "internalType": "address",
          "name": "_t",
          "type": "address"
        }
      ],
      "name": "payWithBalance",
      "outputs": [],
      "stateMutability": "payable",
      "type": "function",
      "payable": true
    }
  ],
  "bytecode": "0x608060405234801561001057600080fd5b50610857806100206000396000f3fe6080604052600436106100345760003560e01c80636524b152146100395780637f9968cd146100555780638e0273bb14610071575b600080fd5b610053600480360381019061004e9190610476565b61009a565b005b61006f600480360381019061006a9190610476565b6101ac565b005b34801561007d57600080fd5b50610098600480360381019061009391906104b6565b610399565b005b670de0b6b3a7640000826100ae9190610512565b34146100ef576040517f08c379a00000000000000000000000000000000000000000000000000000000081526004016100e6906105c9565b60405180910390fd5b6064600a836100fe9190610512565b6101089190610618565b60008190555061011781610399565b600160009054906101000a900473ffffffffffffffffffffffffffffffffffffffff1673ffffffffffffffffffffffffffffffffffffffff16638007d9f9600054336040518363ffffffff1660e01b8152600401610176929190610667565b600060405180830381600087803b15801561019057600080fd5b505af11580156101a4573d6000803e3d6000fd5b505050505050565b6101b581610399565b6000600160009054906101000a900473ffffffffffffffffffffffffffffffffffffffff1673ffffffffffffffffffffffffffffffffffffffff16635f515226336040518263ffffffff1660e01b81526004016102129190610690565b6020604051808303816000875af1158015610231573d6000803e3d6000fd5b505050506040513d601f19601f8201168201806040525081019061025591906106c0565b90506000818461026591906106ed565b1061035957600160009054906101000a900473ffffffffffffffffffffffffffffffffffffffff1673ffffffffffffffffffffffffffffffffffffffff1663e30443bc3360006040518363ffffffff1660e01b81526004016102c8929190610766565b600060405180830381600087803b1580156102e257600080fd5b505af11580156102f6573d6000803e3d6000fd5b505050503373ffffffffffffffffffffffffffffffffffffffff166108fc670de0b6b3a7640000836103289190610512565b9081150290604051600060405180830381858888f19350505050158015610353573d6000803e3d6000fd5b50610394565b6040517f08c379a000000000000000000000000000000000000000000000000000000000815260040161038b90610801565b60405180910390fd5b505050565b80600160006101000a81548173ffffffffffffffffffffffffffffffffffffffff021916908373ffffffffffffffffffffffffffffffffffffffff16021790555050565b600080fd5b6000819050919050565b6103f5816103e2565b811461040057600080fd5b50565b600081359050610412816103ec565b92915050565b600073ffffffffffffffffffffffffffffffffffffffff82169050919050565b600061044382610418565b9050919050565b61045381610438565b811461045e57600080fd5b50565b6000813590506104708161044a565b92915050565b6000806040838503121561048d5761048c6103dd565b5b600061049b85828601610403565b92505060206104ac85828601610461565b9150509250929050565b6000602082840312156104cc576104cb6103dd565b5b60006104da84828501610461565b91505092915050565b7f4e487b7100000000000000000000000000000000000000000000000000000000600052601160045260246000fd5b600061051d826103e2565b9150610528836103e2565b9250817fffffffffffffffffffffffffffffffffffffffffffffffffffffffffffffffff0483118215151615610561576105606104e3565b5b828202905092915050565b600082825260208201905092915050565b7f4e65656420746f2073656e6420656e6f75676820657468657200000000000000600082015250565b60006105b360198361056c565b91506105be8261057d565b602082019050919050565b600060208201905081810360008301526105e2816105a6565b9050919050565b7f4e487b7100000000000000000000000000000000000000000000000000000000600052601260045260246000fd5b6000610623826103e2565b915061062e836103e2565b92508261063e5761063d6105e9565b5b828204905092915050565b610652816103e2565b82525050565b61066181610438565b82525050565b600060408201905061067c6000830185610649565b6106896020830184610658565b9392505050565b60006020820190506106a56000830184610658565b92915050565b6000815190506106ba816103ec565b92915050565b6000602082840312156106d6576106d56103dd565b5b60006106e4848285016106ab565b91505092915050565b60006106f8826103e2565b9150610703836103e2565b925082821015610716576107156104e3565b5b828203905092915050565b6000819050919050565b6000819050919050565b600061075061074b61074684610721565b61072b565b6103e2565b9050919050565b61076081610735565b82525050565b600060408201905061077b6000830185610658565b6107886020830184610757565b9392505050565b7f54686572652061726520736f6d652070726f626c656d73207769746820796f7560008201527f722062616c616e63650000000000000000000000000000000000000000000000602082015250565b60006107eb60298361056c565b91506107f68261078f565b604082019050919050565b6000602082019050818103600083015261081a816107de565b905091905056fea264697066735822122003a5f57e37454e0be8c044aa26e45883a4d62daf93c2026f651a72b34549cf0264736f6c634300080a0033",
  "immutableReferences": {},
  "source": "// SPDX-License-Identifier: MIT\npragma solidity >=0.4.22 < 0.9.0;\n\ncontract storePaymentsDiscountB {\n\n  function addPayment(uint _discount, address _idwallet) public {}\n  function setBalance(address _idwallet, uint _discount) public {}\n  function checkBalance(address _idwallet) public returns (uint discount) {}\n\n}\n\ncontract receivePayment {\n  /*uint public idwallet;\n  uint private price;*/\n  uint private discount;\n  \n\n\n  constructor() {\n    \n  }\n\n  storePaymentsDiscountB sPD;\n\n  function Existing(address _t) public {\n      sPD = storePaymentsDiscountB(_t);\n  }\n  \n\n  function receivePay(uint _price, address _t) public payable {\n    require(msg.value == _price*10**18, 'Need to send enough ether'); //Need to convert _price in wei before the comparison\n\n    discount = (_price*10)/100; //Set the discount percentage\n    Existing(_t); //Creating a new instance of the smart contract StorePaymentDiscount \n    sPD.addPayment(discount, msg.sender); //Adding the information about the payment\n  }\n\n  function payWithBalance(uint _price, address _t) public payable{\n\n    Existing(_t);\n    uint _balance = sPD.checkBalance(msg.sender);\n    if((_price - _balance) >= 0){ //Check that the balance is enough\n      //uint _newPrice = _price - _balance;\n      sPD.setBalance(msg.sender, 0); //Set the balance to 0\n      payable(msg.sender).transfer(_balance*1 ether); //Return the money saved to the EOA\n\n    }else{\n      revert(\"There are some problems with your balance\");\n    }\n  }\n\n\n}",
  "sourcePath": "C:\\Users\\jacoe\\Documents\\Universit\\Reti\\MoonCake\\contracts\\receivePayment.sol",
  "compiler": {
    "name": "solc",
    "version": "0.8.10+commit.fc410830.Emscripten.clang"
  },
  "schemaVersion": "3.4.3",
  "updatedAt": "2021-12-21T18:53:07.686Z",
  "networkType": "ethereum",
  "devdoc": {
    "kind": "dev",
    "methods": {},
    "version": 1
  },
  "userdoc": {
    "kind": "user",
    "methods": {},
    "version": 1
  }
}