{
  "contractName": "storePaymentsDiscount",
  "abi": [
    {
      "inputs": [],
      "stateMutability": "nonpayable",
      "type": "constructor"
    },
    {
      "inputs": [
        {
          "internalType": "address",
          "name": "",
          "type": "address"
        }
      ],
      "name": "payments",
      "outputs": [
        {
          "internalType": "address",
          "name": "idwallet",
          "type": "address"
        },
        {
          "internalType": "uint256",
          "name": "discount",
          "type": "uint256"
        },
        {
          "internalType": "bool",
          "name": "exists",
          "type": "bool"
        }
      ],
      "stateMutability": "view",
      "type": "function",
      "constant": true
    },
    {
      "inputs": [],
      "name": "paymentsCount",
      "outputs": [
        {
          "internalType": "uint256",
          "name": "",
          "type": "uint256"
        }
      ],
      "stateMutability": "view",
      "type": "function",
      "constant": true
    },
    {
      "inputs": [
        {
          "internalType": "uint256",
          "name": "_discount",
          "type": "uint256"
        },
        {
          "internalType": "address",
          "name": "_idwallet",
          "type": "address"
        }
      ],
      "name": "addPayment",
      "outputs": [],
      "stateMutability": "nonpayable",
      "type": "function"
    },
    {
      "inputs": [
        {
          "internalType": "address",
          "name": "_idwallet",
          "type": "address"
        },
        {
          "internalType": "uint256",
          "name": "_discount",
          "type": "uint256"
        }
      ],
      "name": "setBalance",
      "outputs": [],
      "stateMutability": "nonpayable",
      "type": "function"
    },
    {
      "inputs": [
        {
          "internalType": "address",
          "name": "_idwallet",
          "type": "address"
        }
      ],
      "name": "checkBalance",
      "outputs": [
        {
          "internalType": "uint256",
          "name": "discount",
          "type": "uint256"
        }
      ],
      "stateMutability": "view",
      "type": "function",
      "constant": true
    }
  ],
  "bytecode": "0x60806040523480156200001157600080fd5b50620000396001734f1ce7d8c5083894cba7cb95e03bdc0d7d9e38c86200006660201b60201c565b62000060600273ba715bb17ec6f74fd84e8090194cabf59e2c336b6200006660201b60201c565b620004cf565b6000808273ffffffffffffffffffffffffffffffffffffffff1673ffffffffffffffffffffffffffffffffffffffff16815260200190815260200160002060020160009054906101000a900460ff16620002af5760405180606001604052808273ffffffffffffffffffffffffffffffffffffffff168152602001838152602001600115158152506000808373ffffffffffffffffffffffffffffffffffffffff1673ffffffffffffffffffffffffffffffffffffffff16815260200190815260200160002060008201518160000160006101000a81548173ffffffffffffffffffffffffffffffffffffffff021916908373ffffffffffffffffffffffffffffffffffffffff1602179055506020820151816001015560408201518160020160006101000a81548160ff02191690831515021790555090505060016000808373ffffffffffffffffffffffffffffffffffffffff1673ffffffffffffffffffffffffffffffffffffffff16815260200190815260200160002090806001815401808255809150506001900390600052602060002090600302016000909190919091506000820160009054906101000a900473ffffffffffffffffffffffffffffffffffffffff168160000160006101000a81548173ffffffffffffffffffffffffffffffffffffffff021916908373ffffffffffffffffffffffffffffffffffffffff160217905550600182015481600101556002820160009054906101000a900460ff168160020160006101000a81548160ff0219169083151502179055505050620003b8565b60005b600180549050811015620003b6578173ffffffffffffffffffffffffffffffffffffffff1660018281548110620002ee57620002ed620003bc565b5b906000526020600020906003020160000160009054906101000a900473ffffffffffffffffffffffffffffffffffffffff1673ffffffffffffffffffffffffffffffffffffffff161415620003a0578260018281548110620003555762000354620003bc565b5b90600052602060002090600302016001015462000373919062000424565b600182815481106200038a5762000389620003bc565b5b9060005260206000209060030201600101819055505b8080620003ad9062000481565b915050620002b2565b505b5050565b7f4e487b7100000000000000000000000000000000000000000000000000000000600052603260045260246000fd5b6000819050919050565b7f4e487b7100000000000000000000000000000000000000000000000000000000600052601160045260246000fd5b60006200043182620003eb565b91506200043e83620003eb565b9250827fffffffffffffffffffffffffffffffffffffffffffffffffffffffffffffffff03821115620004765762000475620003f5565b5b828201905092915050565b60006200048e82620003eb565b91507fffffffffffffffffffffffffffffffffffffffffffffffffffffffffffffffff821415620004c457620004c3620003f5565b5b600182019050919050565b61095b80620004df6000396000f3fe608060405234801561001057600080fd5b50600436106100575760003560e01c80635f5152261461005c5780638007d9f91461008c578063aafab1e8146100a8578063e2982c21146100c6578063e30443bc146100f8575b600080fd5b610076600480360381019061007191906106ba565b610114565b6040516100839190610700565b60405180910390f35b6100a660048036038101906100a19190610747565b6101ea565b005b6100b061052e565b6040516100bd9190610700565b60405180910390f35b6100e060048036038101906100db91906106ba565b610534565b6040516100ef939291906107b1565b60405180910390f35b610112600480360381019061010d91906107e8565b61058b565b005b600080600090505b6001805490508110156101e3578273ffffffffffffffffffffffffffffffffffffffff166001828154811061015457610153610828565b5b906000526020600020906003020160000160009054906101000a900473ffffffffffffffffffffffffffffffffffffffff1673ffffffffffffffffffffffffffffffffffffffff1614156101d057600181815481106101b6576101b5610828565b5b9060005260206000209060030201600101549150506101e5565b80806101db90610886565b91505061011c565b505b919050565b6000808273ffffffffffffffffffffffffffffffffffffffff1673ffffffffffffffffffffffffffffffffffffffff16815260200190815260200160002060020160009054906101000a900460ff166104315760405180606001604052808273ffffffffffffffffffffffffffffffffffffffff168152602001838152602001600115158152506000808373ffffffffffffffffffffffffffffffffffffffff1673ffffffffffffffffffffffffffffffffffffffff16815260200190815260200160002060008201518160000160006101000a81548173ffffffffffffffffffffffffffffffffffffffff021916908373ffffffffffffffffffffffffffffffffffffffff1602179055506020820151816001015560408201518160020160006101000a81548160ff02191690831515021790555090505060016000808373ffffffffffffffffffffffffffffffffffffffff1673ffffffffffffffffffffffffffffffffffffffff16815260200190815260200160002090806001815401808255809150506001900390600052602060002090600302016000909190919091506000820160009054906101000a900473ffffffffffffffffffffffffffffffffffffffff168160000160006101000a81548173ffffffffffffffffffffffffffffffffffffffff021916908373ffffffffffffffffffffffffffffffffffffffff160217905550600182015481600101556002820160009054906101000a900460ff168160020160006101000a81548160ff021916908315150217905550505061052a565b60005b600180549050811015610528578173ffffffffffffffffffffffffffffffffffffffff166001828154811061046c5761046b610828565b5b906000526020600020906003020160000160009054906101000a900473ffffffffffffffffffffffffffffffffffffffff1673ffffffffffffffffffffffffffffffffffffffff1614156105155782600182815481106104cf576104ce610828565b5b9060005260206000209060030201600101546104eb91906108cf565b600182815481106104ff576104fe610828565b5b9060005260206000209060030201600101819055505b808061052090610886565b915050610434565b505b5050565b60025481565b60006020528060005260406000206000915090508060000160009054906101000a900473ffffffffffffffffffffffffffffffffffffffff16908060010154908060020160009054906101000a900460ff16905083565b60005b600180549050811015610652578273ffffffffffffffffffffffffffffffffffffffff16600182815481106105c6576105c5610828565b5b906000526020600020906003020160000160009054906101000a900473ffffffffffffffffffffffffffffffffffffffff1673ffffffffffffffffffffffffffffffffffffffff16141561063f57816001828154811061062957610628610828565b5b9060005260206000209060030201600101819055505b808061064a90610886565b91505061058e565b505050565b600080fd5b600073ffffffffffffffffffffffffffffffffffffffff82169050919050565b60006106878261065c565b9050919050565b6106978161067c565b81146106a257600080fd5b50565b6000813590506106b48161068e565b92915050565b6000602082840312156106d0576106cf610657565b5b60006106de848285016106a5565b91505092915050565b6000819050919050565b6106fa816106e7565b82525050565b600060208201905061071560008301846106f1565b92915050565b610724816106e7565b811461072f57600080fd5b50565b6000813590506107418161071b565b92915050565b6000806040838503121561075e5761075d610657565b5b600061076c85828601610732565b925050602061077d858286016106a5565b9150509250929050565b6107908161067c565b82525050565b60008115159050919050565b6107ab81610796565b82525050565b60006060820190506107c66000830186610787565b6107d360208301856106f1565b6107e060408301846107a2565b949350505050565b600080604083850312156107ff576107fe610657565b5b600061080d858286016106a5565b925050602061081e85828601610732565b9150509250929050565b7f4e487b7100000000000000000000000000000000000000000000000000000000600052603260045260246000fd5b7f4e487b7100000000000000000000000000000000000000000000000000000000600052601160045260246000fd5b6000610891826106e7565b91507fffffffffffffffffffffffffffffffffffffffffffffffffffffffffffffffff8214156108c4576108c3610857565b5b600182019050919050565b60006108da826106e7565b91506108e5836106e7565b9250827fffffffffffffffffffffffffffffffffffffffffffffffffffffffffffffffff0382111561091a57610919610857565b5b82820190509291505056fea2646970667358221220c9627ff8ad337aa6ff962dd31dd99f76a948cfcc94d73f75c0f6f6e34734a10864736f6c634300080a0033",
  "immutableReferences": {},
  "source": "// SPDX-License-Identifier: GNU GPL 3.0\r\npragma solidity >=0.4.22 < 0.9.0;\r\n\r\ncontract storePaymentsDiscount {\r\n    struct InfoPayment {\r\n        address idwallet; //Used for mapping \r\n        uint discount; //Balance of the account\r\n        bool exists; //Boolean value used to check if payment struct already exists\r\n    }\r\n\r\n    mapping(address => InfoPayment) public payments;\r\n    InfoPayment[] paymentArray;\r\n\r\n    constructor() {\r\n        addPayment(1, 0x4f1Ce7d8C5083894CbA7cB95E03BDc0d7D9E38c8);\r\n        addPayment(2, 0xBA715bB17Ec6f74fD84E8090194CAbF59E2C336b);\r\n    }\r\n    \r\n    uint public paymentsCount;\r\n\r\n    function addPayment(uint _discount, address _idwallet) public {\r\n        if(!payments[_idwallet].exists){ //Checking if the balance is already present \r\n            payments[_idwallet] = InfoPayment(_idwallet, _discount, true); //If not, create the balance \r\n            paymentArray.push(payments[_idwallet]);\r\n        }\r\n        else{\r\n            for(uint i = 0; i < paymentArray.length; i++){\r\n                if(paymentArray[i].idwallet == _idwallet){\r\n                    paymentArray[i].discount = paymentArray[i].discount + _discount; //Updating the balance \r\n                }\r\n            }\r\n            \r\n        }\r\n    }\r\n\r\n    function setBalance(address _idwallet, uint _discount) public{\r\n        for(uint i = 0; i < paymentArray.length; i++){\r\n            if(paymentArray[i].idwallet == _idwallet){\r\n                    paymentArray[i].discount = _discount; //Set the balance to the value _discount\r\n            }\r\n        }\r\n    }\r\n\r\n    function checkBalance(address _idwallet) public view returns (uint discount){\r\n        for(uint i = 0; i < paymentArray.length; i++){\r\n            if(paymentArray[i].idwallet == _idwallet){\r\n                return paymentArray[i].discount;\r\n            }\r\n        }\r\n    }\r\n}\r\n\r\n",
  "sourcePath": "C:\\Users\\jacoe\\Documents\\Universit\\Reti\\MoonCake\\contracts\\storePaymentsDiscount.sol",
  "compiler": {
    "name": "solc",
    "version": "0.8.10+commit.fc410830.Emscripten.clang"
  },
  "schemaVersion": "3.4.3",
  "updatedAt": "2021-12-22T10:47:50.653Z",
  "networkType": "ethereum",
  "devdoc": {
    "kind": "dev",
    "methods": {},
    "version": 1
  },
  "userdoc": {
    "kind": "user",
    "methods": {},
    "version": 1
  }
}