{
  "contractName": "storePaymentsDiscount",
  "abi": [
    {
      "inputs": [],
      "stateMutability": "nonpayable",
      "type": "constructor"
    },
    {
      "inputs": [
        {
          "internalType": "uint256",
          "name": "",
          "type": "uint256"
        }
      ],
      "name": "payments",
      "outputs": [
        {
          "internalType": "uint256",
          "name": "idwallet",
          "type": "uint256"
        },
        {
          "internalType": "uint256",
          "name": "discount",
          "type": "uint256"
        },
        {
          "internalType": "bool",
          "name": "exists",
          "type": "bool"
        }
      ],
      "stateMutability": "view",
      "type": "function",
      "constant": true
    },
    {
      "inputs": [],
      "name": "paymentsCount",
      "outputs": [
        {
          "internalType": "uint256",
          "name": "",
          "type": "uint256"
        }
      ],
      "stateMutability": "view",
      "type": "function",
      "constant": true
    },
    {
      "inputs": [
        {
          "internalType": "uint256",
          "name": "_discount",
          "type": "uint256"
        },
        {
          "internalType": "uint256",
          "name": "_idwallet",
          "type": "uint256"
        }
      ],
      "name": "addPayment",
      "outputs": [],
      "stateMutability": "nonpayable",
      "type": "function"
    },
    {
      "inputs": [
        {
          "internalType": "uint256",
          "name": "_idwallet",
          "type": "uint256"
        },
        {
          "internalType": "uint256",
          "name": "_discount",
          "type": "uint256"
        }
      ],
      "name": "setBalance",
      "outputs": [],
      "stateMutability": "nonpayable",
      "type": "function"
    },
    {
      "inputs": [
        {
          "internalType": "uint256",
          "name": "_idwallet",
          "type": "uint256"
        }
      ],
      "name": "checkBalance",
      "outputs": [
        {
          "internalType": "uint256",
          "name": "discount",
          "type": "uint256"
        }
      ],
      "stateMutability": "nonpayable",
      "type": "function"
    }
  ],
  "bytecode": "0x608060405234801561001057600080fd5b506100236001600261003a60201b60201c565b6100356002600361003a60201b60201c565b610305565b60008082815260200190815260200160002060020160009054906101000a900460ff1661014d57604051806060016040528082815260200183815260200160011515815250600080838152602001908152602001600020600082015181600001556020820151816001015560408201518160020160006101000a81548160ff0219169083151502179055509050506001600080838152602001908152602001600020908060018154018082558091505060019003906000526020600020906003020160009091909190915060008201548160000155600182015481600101556002820160009054906101000a900460ff168160020160006101000a81548160ff02191690831515021790555050506101fa565b60005b6001805490508110156101f8578160018281548110610172576101716101fe565b5b90600052602060002090600302016000015414156101e557826001828154811061019f5761019e6101fe565b5b9060005260206000209060030201600101546101bb9190610266565b600182815481106101cf576101ce6101fe565b5b9060005260206000209060030201600101819055505b80806101f0906102bc565b915050610150565b505b5050565b7f4e487b7100000000000000000000000000000000000000000000000000000000600052603260045260246000fd5b6000819050919050565b7f4e487b7100000000000000000000000000000000000000000000000000000000600052601160045260246000fd5b60006102718261022d565b915061027c8361022d565b9250827fffffffffffffffffffffffffffffffffffffffffffffffffffffffffffffffff038211156102b1576102b0610237565b5b828201905092915050565b60006102c78261022d565b91507fffffffffffffffffffffffffffffffffffffffffffffffffffffffffffffffff8214156102fa576102f9610237565b5b600182019050919050565b610676806103146000396000f3fe608060405234801561001057600080fd5b50600436106100575760003560e01c80634a4b9feb1461005c5780634d0a391c146100785780637f2862861461009457806387d81789146100c4578063aafab1e8146100f6575b600080fd5b6100766004803603810190610071919061045a565b610114565b005b610092600480360381019061008d919061045a565b610194565b005b6100ae60048036038101906100a9919061049a565b610358565b6040516100bb91906104d6565b60405180910390f35b6100de60048036038101906100d9919061049a565b6103e2565b6040516100ed9392919061050c565b60405180910390f35b6100fe610419565b60405161010b91906104d6565b60405180910390f35b60005b60018054905081101561018f57826001828154811061013957610138610543565b5b906000526020600020906003020160000154141561017c57816001828154811061016657610165610543565b5b9060005260206000209060030201600101819055505b8080610187906105a1565b915050610117565b505050565b60008082815260200190815260200160002060020160009054906101000a900460ff166102a757604051806060016040528082815260200183815260200160011515815250600080838152602001908152602001600020600082015181600001556020820151816001015560408201518160020160006101000a81548160ff0219169083151502179055509050506001600080838152602001908152602001600020908060018154018082558091505060019003906000526020600020906003020160009091909190915060008201548160000155600182015481600101556002820160009054906101000a900460ff168160020160006101000a81548160ff0219169083151502179055505050610354565b60005b6001805490508110156103525781600182815481106102cc576102cb610543565b5b906000526020600020906003020160000154141561033f5782600182815481106102f9576102f8610543565b5b90600052602060002090600302016001015461031591906105ea565b6001828154811061032957610328610543565b5b9060005260206000209060030201600101819055505b808061034a906105a1565b9150506102aa565b505b5050565b600080600090505b6001805490508110156103db57826001828154811061038257610381610543565b5b90600052602060002090600302016000015414156103c857600181815481106103ae576103ad610543565b5b9060005260206000209060030201600101549150506103dd565b80806103d3906105a1565b915050610360565b505b919050565b60006020528060005260406000206000915090508060000154908060010154908060020160009054906101000a900460ff16905083565b60025481565b600080fd5b6000819050919050565b61043781610424565b811461044257600080fd5b50565b6000813590506104548161042e565b92915050565b600080604083850312156104715761047061041f565b5b600061047f85828601610445565b925050602061049085828601610445565b9150509250929050565b6000602082840312156104b0576104af61041f565b5b60006104be84828501610445565b91505092915050565b6104d081610424565b82525050565b60006020820190506104eb60008301846104c7565b92915050565b60008115159050919050565b610506816104f1565b82525050565b600060608201905061052160008301866104c7565b61052e60208301856104c7565b61053b60408301846104fd565b949350505050565b7f4e487b7100000000000000000000000000000000000000000000000000000000600052603260045260246000fd5b7f4e487b7100000000000000000000000000000000000000000000000000000000600052601160045260246000fd5b60006105ac82610424565b91507fffffffffffffffffffffffffffffffffffffffffffffffffffffffffffffffff8214156105df576105de610572565b5b600182019050919050565b60006105f582610424565b915061060083610424565b9250827fffffffffffffffffffffffffffffffffffffffffffffffffffffffffffffffff0382111561063557610634610572565b5b82820190509291505056fea26469706673582212204ea1f54fd7cf81347db5fb3293c4dca3fcfb00b014cae4ad0ddf8fcb4edf90d664736f6c634300080a0033",
  "immutableReferences": {},
  "source": "pragma solidity >=0.4.22 < 0.9.0;\r\n\r\ncontract storePaymentsDiscount {\r\n    struct InfoPayment {\r\n        uint idwallet;\r\n        uint discount;\r\n        bool exists;\r\n    }\r\n\r\n    mapping(uint => InfoPayment) public payments;\r\n    InfoPayment[] paymentArray;\r\n\r\n    constructor() {\r\n        addPayment(1, 2);\r\n        addPayment(2, 3);\r\n    }\r\n    \r\n    uint public paymentsCount;\r\n\r\n    function addPayment(uint _discount, uint _idwallet) public {\r\n        if(!payments[_idwallet].exists){ //Checking if the balance is already present \r\n            payments[_idwallet] = InfoPayment(_idwallet, _discount, true); //If not, create the balance \r\n            paymentArray.push(payments[_idwallet]);\r\n        }\r\n        else{\r\n            for(uint i = 0; i < paymentArray.length; i++){\r\n                if(paymentArray[i].idwallet == _idwallet){\r\n                    paymentArray[i].discount = paymentArray[i].discount + _discount; //Updating the balance \r\n                }\r\n            }\r\n            \r\n        }\r\n    }\r\n\r\n    function setBalance(uint _idwallet, uint _discount) public{\r\n        for(uint i = 0; i < paymentArray.length; i++){\r\n            if(paymentArray[i].idwallet == _idwallet){\r\n                    paymentArray[i].discount = _discount; //Set the balance to the value _discount\r\n            }\r\n        }\r\n    }\r\n\r\n    function checkBalance(uint _idwallet) public returns (uint discount){\r\n        for(uint i = 0; i < paymentArray.length; i++){\r\n            if(paymentArray[i].idwallet == _idwallet){\r\n                return paymentArray[i].discount;\r\n            }\r\n        }\r\n    }\r\n}\r\n\r\n",
  "sourcePath": "C:\\Users\\jacoe\\Documents\\Universit\\Reti\\MoonCake\\contracts\\storePaymentsDiscount.sol",
  "compiler": {
    "name": "solc",
    "version": "0.8.10+commit.fc410830.Emscripten.clang"
  },
  "schemaVersion": "3.4.3",
  "updatedAt": "2021-12-20T22:42:39.672Z",
  "networkType": "ethereum",
  "devdoc": {
    "kind": "dev",
    "methods": {},
    "version": 1
  },
  "userdoc": {
    "kind": "user",
    "methods": {},
    "version": 1
  }
}